:020000040000FA
:2B000000FFFF62FF2500FFFFFFFFFFFFFFFFFFFFFFFFFFFFFFFFFFFFFFFFFFFFFFFFFFFFFFFFFFFFFFFFFFFFFFFFFF76
:2B002B00601886611886611886611886611886611886010000000018866119966119866158866118866118866180B331
:2B00560040100441100441100441100441100441100401000000001004E1100EE110044138044110044110044100C74A
:2B008100000000000000000000000000000000000000000000000000000000000000000000000000000000000080E7ED
:2B00AC00000000000000000000000000000000000000000000000000000000000000000000000000000000000080E7C2
:2B00D700000000000000000000000000000000000000000000000000008000088000000020000000000000000080CD89
:2B010200000000000000000000000000000000000000000000000000002400032400000000040000000000000080E023
:2B012D00000000000000000000000000000000000000000000000000000000000000000000000000000000000080E740
:2B015800000000000000000000000000000000000000000000000000000000000000000000000000000000000080E715
:2B018300000000000000000000000000000000000000000000000000000000000000000000000000000000000080E7EA
:2B01AE00000000000000000000000000000000000000000000000000000000000000000000000000000000000080E7BF
:2B01D900000000000000000000000000000000000000000000000000000000000000000000000000000000000080E794
:2B020400000000000000000000000000000000000000000000000000000000000000000000000000000000000080E768
:2B022F00000000000000000000000000000000000000000000000000000000000000000000000000000000000080E73D
:2B025A00000000000000000000000000000000000000000000000000000000000000000000000000000000000080E712
:2B028500000000000000000000000000000000000000000000000000000000000000000000000000000000000080E7E7
:2B02B000000000000000000000000000000000000000000000000000000000000000000000000000000000000080E7BC
:2B02DB00000000000000000000000000000000000000000000000000000000000000000000000000000000000080E791
:2B030600000000000000000000000000000000000000000000000000000000000000000000000000000000000080E765
:2B033100000000000000000000000000000000000000000000000000000000000000000000000000000000000080E73A
:2B035C00000000000000000000000000000000000000000000000000000000000000000000000000000000000080E70F
:2B038700000000000000000000000000000000000000000000000000000000000000000000000000000000000080E7E4
:2B03B200020000000000000000000000000000000000000000000000000000000000000000000000000000000008ED29
:2B03DD00000000000000000000000000000000000000000000000000000000000000000000000000000000000080E78E
:2B040800000000000000000000000000000000000000000000000000000000000000000000000000000000000080E762
:2B043300000000000000000000000000000000000000000000000000000000000000000000000000000000000080E737
:2B045E00000000000000000000000000000000000000000000000000000000000000000000000000000000000080E70C
:2B048900020000000000000000000000000000000000000000000000000000000000000000000000000000000008ED51
:2B04B400800008800008800008800008800008800008000000000020000220000220000220000220000220000280E7BA
:2B04DF00800008800008800008800008800008800008000000000020000220000220000220000220000220000280E78F
:2B050A00000000000000000000000000000000000000000000000000000000000000000000000000000000000080E75F
:2B053500020000000000000000000000000000000000000000000000000000000000000000000000000000000008EDA4
:2B056000000000000000000000000000000000000000000000000000000000000000000000000000000000000080E709
:2B058B00000000000000000000000000000000000000000000000000000000000000000000000000000000000080E7DE
:2B05B600000000000000000000000000000000000000000000000000000000000000000000000000000000000080E7B3
:2B05E100000000000000000000000000000000000000000000000000000000000000000000000000000000000080E788
:2B060C00020000000000000000000000000000000000000000000000000000000000000000000000000000000008EDCC
:2B063700000000000000000000000000000000000000000000000000000000000000000000000000000000000080E731
:2B066200000000000000000000000000000000000000000000000000000000000000000000000000000000000080E706
:2B068D00000000000000000000000000000000000000000000000000000000000000000000000000000000000080E7DB
:2B06B800020000000000000000000000000000000000000000000000000000000000000000000000000000000008ED20
:2B06E300000000000000000000000000000000000000000000000000000000000000000000000000000000000080E785
:2B070E00000000000000000000000000000000000000000000000000000000000000000000000000000000000080E759
:2B073900000000000000000000000000000000000000000000000000000000000000000000000000000000000080E72E
:2B076400000000000000000000000000000000000000000000000000000000000000000000000000000000000080E703
:2B078F00020000000000000000000000000000000000000000000000000000000000000000000000000000000008ED48
:2B07BA00000000000000000000000000000000000000000000000000000000000000000000000000000000000080E7AD
:2B07E500000000000000000000000000000000000000000000000000000000000000000000000000000000000080E782
:2B081000000000000000000000000000000000000000000000000000000000000000000000000000000000000080E756
:2B083B00020000000000000000000000000000000000000000000000000000000000000000000000000000000008ED9B
:2B086600000000000000000000000000000000000000000000000000000000000000000000000000000000000080E700
:2B089100000000000000000000000000000000000000000000000000000000000000000000000000000000000080E7D5
:2B08BC00000000000000000000000000000000000000000000000000000000000000000000000000000000000080E7AA
:2B08E700000000000000000000000000000000000000000000000000000000000000000000000000000000000080E77F
:2B091200020000000000000000000000000000000000000000000000000000000000000000000000000000000008EDC3
:2B093D00000000000000000000000000000000000000000000000000000000000000000000000000000000000080E728
:2B096800000000000000000000000000000000000000000000000000000000000000000000000000000000000080E7FD
:2B099300000000000000000000000000000000000000000000000000000000000000000000000000000000000080E7D2
:2B09BE00020000000000000000000000000000000000000000000000000000000000000000000000000000000008ED17
:2B09E900000000000000000000000000000000000000000000000000000000000000000000000000000000000080E77C
:2B0A1400000000000000000000000000000000000000000000000000000000000000000000000000000000000080E750
:2B0A3F00000000000000000000000000000000000000000000000000000000000000000000000000000000000080E725
:2B0A6A00000000000000000000000000000000000000000000000000000000000000000000000000000000000080E7FA
:2B0A9500020000000000000000000000000000000000000000000000000000000000000000000000000000000008ED3F
:2B0AC000000000000000000000000000000000000000000000000000000000000000000000000000000000000080E7A4
:2B0AEB00000000000000000000000000000000000000000000000000000000000000000000000000000000000080E779
:2B0B1600000000000000000000000000000000000000000000000000000000000000000000000000000000000080E74D
:2B0B4100020000000000000000000000000000000000000000000000000000000000000000000000000000000008ED92
:2B0B6C00000000000000000000000000000000000000000000000000000000000000000000000000000000000080E7F7
:2B0B9700000000000000000000000000000000000000000000000000000000000000000000000000000000000080E7CC
:2B0BC200000000000000000000000000000000000000000000000000000000000000000000000000000000000080E7A1
:2B0BED00000000000000000000000000000000000000000000000000000000000000000000000000000000000080E776
:2B0C1800020000000000000000000000000000000000000000000000000000000000000000000000000000000008EDBA
:2B0C4300000000000000000000000000000000000000000000000000000000000000000000000000000000000080E71F
:2B0C6E00000000000000000000000000000000000000000000000000000000000000000000000000000000000080E7F4
:2B0C9900000000000000000000000000000000000000000000000000000000000000000000000000000000000080E7C9
:2B0CC400020000000000000000000000000000000000000000000000000000000000000000000000000000000008ED0E
:2B0CEF00000000000000000000000000000000000000000000000000000000000000000000000000000000000080E773
:2B0D1A00000000000000000000000000000000000000000000000000000000000000000000000000000000000080E747
:2B0D4500000000000000000000000000000000000000000000000000000000000000000000000000000000000080E71C
:2B0D7000000000000000000000000000000000000000000000000000000000000000000000000000000000000080E7F1
:2B0D9B00020000000000000000000000000000000000000000000000000000000000000000000000000000000008ED36
:2B0DC600000000000000000000000000000000000000000000000000000000000000000000000000000000000080E79B
:2B0DF100000000000000000000000000000000000000000000000000000000000000000000000000000000000080E770
:2B0E1C00000000000000000000000000000000000000000000000000000000000000000000000000000000000080E744
:2B0E4700020000000000000000000000000000000000000000000000000000000000000000000000000000000008ED89
:2B0E7200020000000000000000000000000000000000000000000000000000000000000000000000000000000080E5EE
:2B0E9D00000000000000000000000000000000000000000000000000000000000000000000000000000000000080E7C3
:2B0EC800020000000000000000000000000000000000000000000000000000000000000000000000000000000080E598
:2B0EF300020000000000000000000000000000000000000000000000000000000000000000000000000000000080E56D
:2B0F1E00020000000000000000000000000000000000000000000000000000000000000000000000000000000008EDB1
:2B0F4900000000000000000000000000000000000000000000000000000000000000000000000000000000000080E716
:2B0F7400000000000000000000000000000000000000000000000000000000000000000000000000000000000080E7EB
:2B0F9F00000000000000000000000000000000000000000000000000000000000000000000000000000000000080E7C0
:2B0FCA00000000000000000000000000000000000000000000000000000000000000000000000000000000000080E795
:2B0FF500000000000000000000000000000000000000000000000000000000000000000000000000000000000080E76A
:2B102000800008800008800008800008800008800008000000000020000220000220000220000220000220000280E742
:2B104B00800008800008800008800008800008800008000000000020000220000220000220000220000220000280E717
:2B107600000000000000000000000000000000000000000000000000000000000000000000000000000000000080E7E8
:2B10A100000000000000000000000000000000000000000000000000000000000000000000000000000000000080E7BD
:2B10CC00000000000000000000000000000000000000000000000000000000000000000000000000000000000080E792
:2B10F700000000000000000000000000000000000000000000000000000000000000000000000000000000000080E767
:2B112200000000000000000000000000000000000000000000000000000000000000000000000000000000000080E73B
:2B114D00000000000000000000000000000000000000000000000000000000000000000000000000000000000080E710
:2B117800000000000000000000000000000000000000000000000000000000000000000000000000000000000080E7E5
:2B11A300000000000000000000000000000000000000000000000000000000000000000000000000000000000080E7BA
:2B11CE00000000000000000000000000000000000000000000000000000000000000000000000000000000000080E78F
:2B11F900000000000000000000000000000000000000000000000000000000000000000000000000000000000080E764
:2B122400000000000000000000000000000000000000000000000000000000000000000000000000000000000080E738
:2B124F00000000000000000000000000000000000000000000000000000000000000000000000000000000000080E70D
:2B127A00000000000000000000000000000000000000000000000000000000000000000000000000000000000080E7E2
:2B12A500000000000000000000000000000000000000000000000000000000000000000000000000000000000080E7B7
:2B12D000000000000000000000000000000000000000000000000000000000000000000000000000000000000080E78C
:2B12FB00000000000000000000000000000000000000000000000000000000000000000000000000000000000080E761
:2B132600000000000000000000000000000000000000000000000000000000000000000000000000000000000080E735
:2B135100000000000000000000000000000000000000000000000000000000000000000000000000000000000080E70A
:2B137C00000000000000000000000000000000000000000000000000000000000000000000000000000000000080E7DF
:2B13A700000000000000000000000000000000000000000000000000000000000000000000000000000000000080E7B4
:2B13D200000000000000000000000000000000000000000000000000000000000000000000000000000000000090F66A
:2B13FD00000000000000000000000000000000000000000000000000000000000000000000000000000000000080E75E
:2B1428000000000000000000000000000000000000000000000000000000000002000000000000000000000000C08156
:2B145300000000000000000000000000000000000000000000000000200000000000000000000000000002000080E7E5
:2B147E00020000000000000000000000000000000000000000000000000000000000000000000000000000000080E5DC
:2B14A900000000000000000000000000000000000000000000000000000000000000000000000000000000000080E7B1
:2B14D400000000000000000000000000000000000000000000000000000000000000000000000000000000000080E786
:2B14FF00000000000000000000000000000000000000000000000000000000000000000000000000000000000080E75B
:2B152A00000000000000000000000000000000000000000000000000000000000000000000000000000000000090F610
:2B155500080000000000000000000000000000000000000000000000000000000000000000000000000000000080EFF4
:2B158000000000000000000000000000000000000000000000000000000000000000000000000000000000000080E7D9
:2B15AB00000000000000000000000000000000000000000000000080000000000800000000000800000800000080E716
:2B15D6000000000000000000000000000000000000000000000000C0000000000C00000000000400000C00000400A367
:2B160100000000000000000000000000000000000000000000000000000000000002000000000900000000000002F6BB
:2B162C00020000000000000000000000000000000000000000000000000000000000000000080000000000000008E59C
:2B16570000000000000000000000000000000000000000000000000000000000000000000000000000000100000ADF7E
:2B168200000000000000000000000000000000000000000000000000000000000000000000000000000000000090F6B7
:2B16AD00000000000000000000000000000000000000000000000000000000000002000000080900000000000088D6A1
:2B16D800000000000000000000000000000000000000000000000000000000000000000000000000000000000008EFF0
:2B170300020000000000000000000000000000000000000000000000000000000000000000000000000000000008EDC4
:2B172E00800008800008800008800008800008800008000000000020000220000220000220000220000220000280E72D
:2B175900800008800008800008800008800008800008000000000020000220000220000220000220000220000280E702
:2B17840000000000000000000000000000000000000000000000000000000000200000000000460000000000008087CD
:2B17AF000000000000000000000000000000000000000000000000D8020000800100000000800100804900000008ADB5
:2B17DA00020000000000000000000000000000000000000000000040040000000002000000000000002200000080A555
:2B1805000200000000000000000000000000000000000000000000500000000009000000000081000003000000008B4E
:2B183000020000000000000000000000000000000000000000000060000000000800000000000000000200000000A180
:2B185B00020000000000000000000000000000000000000000000060080000000000000000000004008000000080C331
:2B188600000000000000000000000000000000000000000000000060100000000600000000000000000200000008DDDA
:2B18B100000000000000000000000000000000000000000000000060000000000000000000000000000204000080E343
:2B18DC000000000000000000000000000000000000000000000000000800000004020000000040000000000000808F84
:2B19070000000000000000000000000000000000000000000000009800000080050000000080030000000000008098FD
:2B193200020000000000000000000000000000000000000000000000020000000400000000000000000000000008ABCF
:2B195D00000000000000000000000000000000000000000000000070000000004500000000008300000000000008F22D
:2B198800000000000000000000000000000000000000000000000000040000008400000000000000000000000090BE5E
:2B19B300000000000000000000000000000000000000000000000000000000000400000000000204000000000008C92E
:2B19DE00000000000000000000000000000000000000000000000040000000000600000000000A00000000000088EF17
:2B1A0900020000000000000000000000000000000000000000000060010000008400000000000200000000000008E4DD
:2B1A340000000000000000000000000000000000000000000000004000000000100000000000420000000000008084F1
:2B1A5F00000000000000000000000000000000000000000000000058020000800100000000800100800102000080817C
:2B1A8A00000000000000000000000000000000000000000000000040000000000600000000000000000000000080C5A6
:2B1AB500020000000000000000000000000000000000000000000050200000008700000000008100002100000008ED76
:2B1AE000020000000000000000000000000000000000000000000060000000000600000000000000000800000000E586
:2B1B0B000400000000000000000000000000000000000000000000C0400000000004000000000004000000000000E7BC
:2B1B3600020000000000000000000000000000000000000000000040000000000600000000000A0000060000000083A9
:2B1B6100020000000000000000000000000000000000000000000040080000000600000000000200000000000080ED9A
:2B1B8C0002000000000000000000000000000000000000000000004040000000100000000000440000040000000CAC9C
:2B1BB7000000000000000000000000000000000000000000000000B8000000800100000000800100804500800B00BE3B
:2B1BE200000000000000000000000000000000000000000000000000100000004000000000000000008000000081EB9C
:2B1C0D000000000000000000000000000000000000000000000000900000000001000000000081000007000009809872
:2B1C38000200000000000000000000000000000000000000000000200000000008000000000000000014000000888A31
:2B1C630000000000000000000000000000000000000000000000000004000000000000000000000400060000000AED51
:2B1C8E00000000000000000000000000000000000000000000000000080000000600000000000800000000000010986D
:2B1CB90000000000000000000000000000000000000000000000000000000000000000000000000000100000000CAE36
:2B1CE40000000000000000000000000000000000000000000000004002000000000200000000000000400000000CCD78
:2B1D0F00020000000000000000000000000000000000000000000098000000800100000000808500800100800988B83F
:2B1D3A00000000000000000000000000000000000000000000000000040000000000000000000000000004000681D51A
:2B1D6500000000000000000000000000000000000000000000000050000000004100000000000D02000900000900D2CF
:2B1D90000000000000000000000000000000000000000000000000E000000000800000000000080000060000068089AB
:2B1DBB0000000000000000000000000000000000000000000000000000000000060000000000040000080400008AADB0
:2B1DE6000200000000000000000000000000000000000000000000600000000006000000000026000000000000808143
:2B1E1100020000000000000000000000000000000000000000000040400000000000000000000C00000000000000A573
:2B1E3C0002000000000000000000000000000000000000000000004000000000060000000000040000000000408087E8
:2B1E67000200000000000000000000000000000000000000000000380400008049000000008049008045008009809A18
:2B1E92000000000000000000000000000000000000000000000000000800000040000000000000000004040046088502
:2B1EBD0000000000000000000000000000000000000000000000001000000000010000000000810000090000070098C0
:2B1EE800000000000000000000000000000000000000000000000000000000000E00000000000600000000000000E7D4
:2B1F1300000000000000000000000000000000000000000000000000200000000600000000000004000804002600C582
:2B1F3E00020000000000000000000000000000000000000000000000000000000600000000000800000000000688EDED
:2B1F6900000000000000000000000000000000000000000000000080400000000600000000000000008000000688A7D2
:2B1F9400000000000000000000000000000000000000000000000000040000000400000000000800000600000614F6FC
:2B1FBF00000000000000000000000000000000000000000000000018000000802900000000800100804100800F889647
:2B1FEA00000000000000000000000000000000000000000000000000000000000402000000002000008000000009918C
:2B201500020000000000000000000000000000000000000000000010080000000900000000000900000100000988F4EE
:2B204000000000000000000000000000000000000000000000000080000000000C00000000000000000000000080A3C6
:2B206B00000000000000000000000000000000000000000000000000000000000000000000000000000804000000A797
:2B209600000000000000000000000000000000000000000000000060000000004600000000000600000000000080856E
:2B20C10000000000000000000000000000000000000000000000000000000000080000000000060000000000008889D5
:2B20EC00020000000000000000000000000000000000000000000000080000000000000000000800000000004088E10E
:2B2117000200000000000000000000000000000000000000000000F8000000802100000000800100800102800910A9BC
:2B2142000200000000000000000000000000000000000000000000000000000002000000000020000000040040088979
:2B216D000200000000000000000000000000000000000000000000700100000011000000000009000009000001089A0E
:2B219800000000000000000000000000000000000000000000000000100000000200000000000000000600001008BA32
:2B21C300000000000000000000000000000000000000000000000060000000008200000000000000000804000000EB18
:2B21EE00000000000000000000000000000000000000000000000060000000000200000000000600000000000080C519
:2B221900000000000000000000000000000000000000000000000060000000000204000000000600000000000680E3C5
:2B2244000A0000000000000000000000000000000000000000000000000000000000000000000000000000000080EDF8
:2B226F00000000000000000000000000000000000000000000000000000000000000000000000000000000000080E7DD
:2B229A00800008800008800008800008800008800008000000000020000220000220000220000220000220000280E7B6
:2B22C500800008800008800008800008800008800008000000000020000220000220000220000220000220000280E78B
:2B22F000000000000000000000000000000000000000000000000008000240000000000000800802800800804800A5FA
:2B231B00000000000000000000000000000000000000000000000040000040000000000000000000000000000080E7B0
:2B234600000000000000000000000000000000000000000000000000000000000000000000000000000000000180F6F5
:2B237100000000000000000000000000000000000000000000000000000000000000000000008000000000002080ED34
:2B239C00000000000000000000000000000000000000000000000048000240000200000000800802800800806900D0BF
:2B23C70000000000000000000000000000000000000000000000005008000000070400000000030400070400808481F1
:2B23F200000000000000000000000000000000000000000000000000040000000000000000000000000002000080C377
:2B241D00000000000000000000000000000000000000000000000000400000000000000000000000000000000080A72D
:2B244800000000000000000000000000000000000000000000000000000000000000000000000000000000000080E702
:2B247300000000000000000000000000000000000000000000000000000000000000000000000001000000000008FF36
:2B249E00000000000000000000000000000000000000000000000000000000008000000000000000000000000080EF24
:2B24C900000000000000000000000000000000000000000000000000000000000000000000000000000000000080E781
:2B24F400000000000000000000000000000000000000000000000000000000000000000000000000000000000080E756
:2B251F00000000000000000000000000000000000000000000000000000000000000000000000000000000000080E72A
:2B254A00000000000000000000000000000000000000000000000000000000000001000000000000000000000080F7EE
:2B257500000000000000000000000000000000000000000000000000000000000000000000000000008000000080EF4C
:2B25A0000000000000000000000000000000000000000000000000002100000000000000000000000000000002D2918A
:2B25CB00000000000000000000000000000000000000000000000000000000000000000000000000000000000008EFEE
:2B25F600000000000000000000000000000000000000000000000000020000000000000000000000000000002080E731
:2B262100000000000000000000000000000000000000000000000000000000000000000000000000000000000080E727
:2B264C00000000000000000000000000000000000000000000000000000000000000000000000000000000000080E7FC
:2B267700000000000000000000000000000000000000000000000000000000000000000000000000000000000080E7D1
:2B26A200000000000000000000000000000000000000000000000000000000000000000000000000000000000080E7A6
:2B26CD000000000000000000000000000000000000000000000000000000000000000000000000000000000000A0C57D
:2B26F800000000000000000000000000000000000000000000000000000000000000000000000000000000000080E750
:2B272300000000000000000000000000000000000000000000000000000000000000000000000000000000000008EF94
:2B274E00100000000000000000000000000000000000000000000000000000000000000000000000000000000080F7D9
:2B277900000000000000000000000000000000000000000000000000000000000000000000000000000000000080E7CE
:2B27A4000000000000000000000000000000000000000000000000000000000000000000000000000000000000A0C5A5
:2B27CF00000000000000000000000000000000000000000000000000000000000000000000000000000000000080E778
:2B27FA00000000000000000000000000000000000000000000000000000000000000000000000000000000000080E74D
:2B282500000000000000000000000000000000000000000000000000000000000000000000000000000080000000E721
:2B285000000000000000000000000000000000000000000000000000000000000000000000000000000040000080A3FA
:2B287B00000000000000000000000000000000000000000000000000000000000000000000000000000008402000AD1D
:2B28A600020000000000000000000000000000000000000000000000000000000000000000000000000000000008ED10
:2B28D100020000000000000000000000000000000000000000000000000000000000000000000000000000000081F564
:2B28FC00040000000000000000000000000000000000000000000000000000000000000000000000000000000080E34A
:2B29270002000000000000000000000000000000000000000000000000000000000000000000000000000840A001B7E3
:2B295200020000000000000000000000000000000000000000000000000000000000000000000000000000000080E5F3
:2B297D00020000000000000000000000000000000000000000000000000000000000000000000000000000000008ED38
:2B29A800800008800008800008800008800008800008000000000020000220000220000220000220000220000280E7A1
:2B29D300800008800008800008800008800008800008000000000020000220000220000220000220000220000280E776
:2B29FE00000000000000000000000000000000000000000000000000000000000000000000000000000080000000E747
:2B2A2900020000000000000000000000000000000000000000000000000000000000000000000000000018000088F4EC
:2B2A54000000000000000000000000000000000000000000000000000000000000000000000000000000600000088966
:2B2A7F000000000000000000000000000000000000000000000000000000000000000000000000000000F002001083A7
:2B2AAA00000000000000000000000000000000000000000000000000000000000000000000000000000000000008EF0A
:2B2AD500000000000000000000000000000000000000000000000000000000000000000000000000000000000008EFDF
:2B2B0000020000000000000000000000000000000000000000000000000000000000000000000000000000000008EDB3
:2B2B2B00000000000000000000000000000000000000000000000000000000000000000000000000000000000080E718
:2B2B5600000000000000000000000000000000000000000000000000000000000000000000000000000000000080E7ED
:2B2B8100000000000000000000000000000000000000000000000000000000000000000000000000000018080000F613
:2B2BAC000200000000000000000000000000000000000000000000000000000000000000000000000000600000088B09
:2B2BD700000000000000000000000000000000000000000000000000000000000000000000000000000070400080D0D3
:2B2C0200000000000000000000000000000000000000000000000000000000000000000000000000000000000080E740
:2B2C2D00000000000000000000000000000000000000000000000000000000000000000000000000000000000080E715
:2B2C5800000000000000000000000000000000000000000000000000000000000000000000000000000000000080E7EA
:2B2C8300020000000000000000000000000000000000000000000000000000000000000000000000000000000008ED2F
:2B2CAE00000000000000000000000000000000000000000000000000000000000000000000000000000000040080E394
:2B2CD900000000000000000000000000000000000000000000000000000000000000000000000000000018000000FEBA
:2B2D0400000000000000000000000000000000000000000000000000000000000000000000000000000080000000E73D
:2B2D2F00020000000000000000000000000000000000000000000000000000000000000000000000000010000008FC63
:2B2D5A00000000000000000000000000000000000000000000000000000000000000000000000000000000010008EE57
:2B2D8500000000000000000000000000000000000000000000000000000000000000000000000000000000000090F69D
:2B2DB000000000000000000000000000000000000000000000000000000000000000000000000000000000000008EF01
:2B2DDB0000000000000000000000000000000000000000000000000000000000000000000000000000006000000889DC
:2B2E0600020000000000000000000000000000000000000000000000000000000000000000000000000080000088EDAA
:2B2E3100000000000000000000000000000000000000000000000000000000000000000000000000000018000000FE60
:2B2E5C0000000000000000000000000000000000000000000000000000000000000000000000000000006000008081EA
:2B2E87000000000000000000000000000000000000000000000000000000000000000000000000000000F0020000929C
:2B2EB200020000000000000000000000000000000000000000000000000000000000000000000000000000000008EDFE
:2B2EDD00000000000000000000000000000000000000000000000000000000000000000000000000000000000080E763
:2B2F0800000000000000000000000000000000000000000000000000000000000000000000000000000000000080E737
:2B2F3300000000000000000000000000000000000000000000000000000000000000000000000000000000000080E70C
:2B2F5E0000000000000000000000000000000000000000000000000000000000000000000000000000006000008081E7
:2B2F89000200000000000000000000000000000000000000000000000000000000000000000000000000780800889A79
:2B2FB400000000000000000000000000000000000000000000000000000000000000000000000000000000000080E78B
:2B2FDF00000000000000000000000000000000000000000000000000000000000000000000000000000010400080B641
:2B300A00000000000000000000000000000000000000000000000000000000000000000000000000000000000080E734
:2B303500020000000000000000000000000000000000000000000000000000000000000000000000000000000008ED79
:2B306000020000000000000000000000000000000000000000000000000000000000000000000000000000000080E5DE
:2B308B00040000000000000000000000000000000000000000000000000000000000000000000000000000000080E3B3
:2B30B600020000000000000000000000000000000000000000000000000000000000000000000000000040040080A584
:2B30E100020000000000000000000000000000000000000000000000000000000000000000000000000018000000FCAE
:2B310C00020000000000000000000000000000000000000000000000000000000000000000000000000040000008A9A5
:2B313700000000000000000000000000000000000000000000000000000000000000000000000000000010080080FED7
:2B3162000000000000000000000000000000000000000000000000000000000000000000000000000000C0000000A3DF
:2B318D00000000000000000000000000000000000000000000000000000000000000000000000000000000000080E7B0
:2B31B8000200000000000000000000000000000000000000000000000000000000000000000000000000600000088BF7
:2B31E300000000000000000000000000000000000000000000000000000000000000000000000000000080020000E55A
:2B320E00000000000000000000000000000000000000000000000000000000000000000000000000000000040080E32E
:2B323900000000000000000000000000000000000000000000000000000000000000000000000000000078000000985A
:2B326400000000000000000000000000000000000000000000000000000000000000000000000000000080000000E7D8
:2B328F00020000000000000000000000000000000000000000000000000000000000000000000000000010000008FCFE
:2B32BA00000000000000000000000000000000000000000000000000000000000000000000000000000000010080E682
:2B32E500000000000000000000000000000000000000000000000000000000000000000000000000000000000080E757
:2B331000000000000000000000000000000000000000000000000000000000000000000000000000000000000080E72B
:2B333B00020000000000000000000000000000000000000000000000000000000000000000000000000000000008ED70
:2B336600000000000000000000000000000000000000000000000000000000000000000000000000000000040008EB45
:2B3391000000000000000000000000000000000000000000000000000000000000000000000000000000780000108900
:2B33BC00000000000000000000000000000000000000000000000000000000000000000000000000000080000088EFEF
:2B33E700000000000000000000000000000000000000000000000000000000000000000000000000000010000008FEA5
:2B341200020000000000000000000000000000000000000000000000000000000000000000000000000000010008EC98
:2B343D00000000000000000000000000000000000000000000000000000000000000000000000000000000000080E7FD
:2B346800000000000000000000000000000000000000000000000000000000000000000000000000000000000080E7D2
:2B34930000000000000000000000000000000000000000000000000000000000000000000000000000006000008081AD
:2B34BE00000000000000000000000000000000000000000000000000000000000000000000000000000000000080E77C
:2B34E900000000000000000000000000000000000000000000000000000000000000000000000000000000000080E751
:2B351400800008800008800008800008800008800008000000000020000220000220000220000220000220000280E729
:2B353F00800008800008800008800008800008800008000000000020000220000220000220000220000220000280E7FE
:2B356A0000000000000000000000000000000000000000000000000000000000000000000000000000000800C201D19A
:2B359500000000000000000000000000000000000000000000000000000000000000000000000000000000000081F793
:2B35C000000000000000000000000000000000000000000000000000000000000000000000000000000000000080E779
:2B35EB00000000000000000000000000000000000000000000000000000000000000000000000000000000000080E74E
:2B361600000000000000000000000000000000000000000000000000000000000000000000000000000008004201D965
:2B364100000000000000000000000000000000000000000000000000000000000000000000000000000010400080B6D8
:2B366C00000000000000000000000000000000000000000000000000000000000000000000000000000000000080E7CC
:2B369700000000000000000000000000000000000000000000000000000000000000000000000000000000000080E7A1
:2B36C200000000000000000000000000000000000000000000000000000000000000000000000000000000000080E776
:2B36ED00080000000000000000000000000000000000000000000000000000000000000000000000000000000080EF3B
:2B371800000000000000000000000000000000000000000000000000000000000000000000000000000000000008EF8F
:2B374300000000000000000000000000000000000000000000000000000000000000000000000000000000000080E7F4
:2B376E00080000000000000000000000000000000000000000000000000000000000000000000000000000000080EFB9
:2B379900000000000000000000000000000000000000000000000000000000000000000000000000000000000080E79E
:2B37C400000000000000000000000000000000000000000000000000000000000000000000000000000000000080E773
:2B37EF00000000000000000000000000000000000000000000000000000000000000000000000000000000000080E748
:2B381A00000000000000000000000000000000000000000000000000000000000000000000000000000000000080E71C
:2B384500000000000000000000000000000000000000000000000000000000000000000000000000000000000080E7F1
:2B387000000000000000000000000000000000000000000000000000000000000000000000000000000000000080E7C6
:2B389B0000000000000000000000000000000000000000000000000801000000000000000000800000000200000486ED
:2B38C600000000000000000000000000000000000000000000000020000000000000000000008000008000000280E74E
:2B38F100000000000000000000000000000000000000000000000000000000000000000000000000000000000080E745
:2B391C00000000000000000000000000000000000000000000000000000000000000000000000000000000000080E719
:2B39470040100441100441100441100441100441100401000000003804411004411004411004E11004E11084A380E9A6
:2B39720060188661188661188661188661188661188601000000005886611886611886611886611986611986C585BD4E
:02399D00FFFF2A
:00000001FF
