:020000040000FA
:2B000000FFFF62FF2500FFFFFFFFFFFFFFFFFFFFFFFFFFFFFFFFFFFFFFFFFFFFFFFFFFFFFFFFFFFFFFFFFFFFFFFFFF76
:2B002B00601886611886611896611886651886611986010000000018866118866118866118866118866118866180E33E
:2B00560040100441100441100E411084431004E11004010000000010044110044110044110044110044110044100E572
:2B008100000000000000000000000000000000000000000000000000000000000000000000000000000000000080E7ED
:2B00AC00000000000000000000000000000000000000000000000000000000000000000000000000000000000080E7C2
:2B00D700000000000000000008000000000000800200000000000000000000000000000000000000000000000080C52F
:2B010200000000000000000008000000000000200000000000000000000000000000000000000000000000000000CFDB
:2B012D00000000000000000000000000000000000000000000000000000000000000000000000000000000000080E740
:2B015800000000000000000000000000000000000000000000000000000000000000000000000000000000000080E715
:2B018300000000000000000000000000000000000000000000000000000000000000000000000000000000000080E7EA
:2B01AE000200000000000000000000000000000000400000000000000000000000000000000000000000000000A083C1
:2B01D900000000000000000000000000000000000000000000000000000000000000000000000000000000000080E794
:2B020400000000000000000000000000000000000000000000000000000000000000000000000000000000000080E768
:2B022F00000000000000000000000000000000000000000000000000000000000000000000000000000000000080E73D
:2B025A00000000000000000000000000000000000000000000000000000000000000000000000000000000000080E712
:2B028500000000000000000000000000000000000000000000000000000000000000000000000000000000000080E7E7
:2B02B0000000000000000000000000000000000000000000000000000000000000000000000000000000000000A0C5BE
:2B02DB00000000000000000000000000000000000000000000000000000000000000000000000000000000000080E791
:2B030600000000000000000000000000000000000000000000000000000000000000000000000000000000000080E765
:2B033100000000000000000000000000000000000020000000000000000000000000000000000000000000000080C53C
:2B035C00000000000000000000000000000000000010000000000000000000000000000000000000000000000080F6F0
:2B038700000000000080000000000000000000000002010000000000000000000000000000000000000000000000C602
:2B03B200020000000080000000000000000000000000000000000000000000000000000000000000000000000088ED29
:2B03DD00000000000000000000000000000000000000000000000000000000000000000000000000000000000080E78E
:2B040800000000000000000000000000000000000000000000000000000000000000000000000000000000000080E762
:2B043300000000000000000000000000000000000002010000000000000000000000000000000000000000000080C655
:2B045E00000000000000000000000000000000000000000000000000000000000000000000000000000000000080E70C
:2B048900020000000000000000000000000000000000000000000000000000000000000000000000000000000008ED51
:2B04B400800008800008800008800008800008800008000000000020000220000220000220000220000220000280E7BA
:2B04DF00800008800008800008800008800008800008000000000020000220000220000220000220000220000280E78F
:2B050A00000000000000000000000000000000000010020000000000000000000000000000000000000000000080F440
:2B053500020000000000000000000000000000000036000000000000000000000000000000000000000000000008BE9D
:2B056000000000000000000000000000000000000010000000000000000000000000000000000000000000000008FE5A
:2B058B00000000000000000000000000000000000014020000000000000000000000000000000000000000000090A5FA
:2B05B600000000000000000000000000000000000018010000000000000000000000000000000000000000000088F782
:2B05E100000000000000000000000000000000000010000000000000000000000000000000000000000000000008FED9
:2B060C00020000000000000000000000000000000010020000000000000000000000000000000000000000000008FEA9
:2B063700000000000000000000000000000000000010000000000000000000000000000000000000000000000080F612
:2B066200000000000000000000000000000000000000100000000000000000000000000000000000000000000080F7E6
:2B068D0000000000000000000000000000000000003E000000000000000000000000000000000000000000000000BC48
:2B06B800020000000000000000000000000000000000000000000000000000000000000000000000000000000008ED20
:2B06E3000000000000000000000000000000000000240800000000000000000000000000000000000000000000808DB3
:2B070E00000000000000000000000000000000000000020000000000000000000000000000000000000000000080E559
:2B073900000000000000000000000000000000000000000000000000000000000000000000000000000000000080E72E
:2B076400000000000000000000000000000000000000000000000000000000000000000000000000000000000080E703
:2B078F00020000000000000000000000000000000000000000000000000000000000000000000000000000000008ED48
:2B07BA00000000000000000000000000000000000018000000000000000000000000000000000000000000000000FEFE
:2B07E50000000000000000000000000000000000000610000000000000000000000000000000000000000000008097BC
:2B081000000000000000000000000000000000000000000000000000000000000000000000000000000000000080E756
:2B083B0002000000000000000000000000000000002408000000000000000000000000000000000000000000000887D5
:2B086600020000000000000000000000000000000000020000000000000000000000000000000000000000000080E7FC
:2B089100040000000000000000000000000000000000000000000000000000000000000000000000000000000080E3D5
:2B08BC00020000000000000000000000000000000000000000000000000000000000000000000000000000000080E5AA
:2B08E700020000000000000000000000000000000000000000000000000000000000000000000000000000000080E57F
:2B091200020000000000000000000000000000000000100000000000000000000000000000000000000000000008FDA3
:2B093D00000000000000000000000000000000000026000000000000000000000000000000000000000000000080A544
:2B096800000000000000000000000000000000000010000000000000000000000000000000000000000000000080F6DE
:2B0993000000000000000000000000000000000000340800000000000000000000000000000000000000000000809CE1
:2B09BE00020000000000000000000000000000000080000000000000000000000000000000000000000000000088ED17
:2B09E900020000000000000000000000000000000018000000000000000000000000000000000000000000000000FCCD
:2B0A1400040000000000000000000000000000000080000000000000000000000000000000000000000000000000E350
:2B0A3F00020000000000000000000000000000000038000000000000000000000000000000000000000000000000DE74
:2B0A6A00020000000000000000000000000000000000100000000000000000000000000000000000000000000080F5DA
:2B0A950002000000000000000000000000000000003E000000000000000000000000000000000000000000000088B6B8
:2B0AC000000000000000000000000000000000000000000000000000000000000000000000000000000000000080E7A4
:2B0AEB000000000000000000000000000000000000240800000000000000000000000000000000000000000000808DA7
:2B0B1600000000000000000000000000000000000000020000000000000000000000000000000000000000000080E54D
:2B0B4100020000000000000000000000000000000000000000000000000000000000000000000000000000000008ED92
:2B0B6C00020000000000000000000000000000000000000000000000000000000000000000000000000000000080E5F7
:2B0B9700040000000000000000000000000000000000000000000000000000000000000000000000000000000080E3CC
:2B0BC200020000000000000000000000000000000000100000000000000000000000000000000000000000000080F581
:2B0BED00020000000000000000000000000000000026000000000000000000000000000000000000000000000080A78E
:2B0C1800020000000000000000000000000000000080000000000000000000000000000000000000000000000088EDBA
:2B0C4300000000000000000000000000000000000004000000000000000000000000000000000000000000000080A75B
:2B0C6E00000000000000000000000000000000000000000000000000000000000000000000000000000000000080E7F4
:2B0C9900000000000000000000000000000000000000000000000000000000000000000000000000000000000080E7C9
:2B0CC400020000000000000000000000000000000018000000000000000000000000000000000000000000000088F46F
:2B0CEF00000000000000000000000000000000000018000000000000000000000000000000000000000000000000FEC4
:2B0D1A00000000000000000000000000000000000000100000000000000000000000000000000000000000000080F727
:2B0D4500000000000000000000000000000000000026000000000000000000000000000000000000000000000080A538
:2B0D7000000000000000000000000000000000000080000000000000000000000000000000000000000000000000E7F1
:2B0D9B00020000000000000000000000000000000004000000000000000000000000000000000000000000000008AD72
:2B0DC600000000000000000000000000000000000000000000000000000000000000000000000000000000000080E79B
:2B0DF100000000000000000000000000000000000000000000000000000000000000000000000000000000000080E770
:2B0E1C00000000000000000000000000000000000018000000000000000000000000000000000000000000000000FE95
:2B0E4700020000000000000000000000000000000018000000000000000000000000000000000000000000000088F4EA
:2B0E7200020000000000000000000000000000000000100000000000000000000000000000000000000000000080F5CE
:2B0E9D00040000000000000000000000000000000026000000000000000000000000000000000000000000000080A1DF
:2B0EC800020000000000000000000000000000000000000000000000000000000000000000000000000000000080E598
:2B0EF30002000000000000000000000000000000001C100000000000000000000000000000000000000000000000ACFA
:2B0F1E00020000000000000000000000000000000000000000000000000000000000000000000000000000000008EDB1
:2B0F4900000000000000000000000000000000000020080000000000000000000000000000000000000000000080CD08
:2B0F7400000000000000000000000000000000000000000000000000000000000000000000000000000000000080E7EB
:2B0F9F00000000000000000000000000000000000000000000000000000000000000000000000000000000000080E7C0
:2B0FCA00000000000000000000000000000000000000000000000000000000000000000000000000000000000080E795
:2B0FF500000000000000000000000000000000000000000000000000000000000000000000000000000000000080E76A
:2B102000800008800008800008800008800008800008000000000020000220000220000220000220000220000280E742
:2B104B00800008800008800008800008800008800008000000000020000220000220000220000220000220000280E717
:2B107600000000000000000000000000000000000182080000000000000000000000000000000000000000000000DEE6
:2B10A100200200000000000004000000000000000100000000000000000000000000000000000000000000000080B4C9
:2B10CC00000000000000000000000000000000000000000000000000000000000000000000000000000000000080E792
:2B10F700000000008000000000000000000000000000000000000000000000000000000000000000000000000080EFDF
:2B11220020020000800000000400000000000000018208000000000000000000000000000000000000000000000094DD
:2B114D00000000000000000000000000000000000000000000000000000000000000000000000000000000000080E710
:2B117800000000000000000000000000000000000020000000000000000000000000000000000000000000000080C5E7
:2B11A300000000000000000000000000000000000000000000000000000000000000000000000000000000000080E7BA
:2B11CE00000000000000000000000000000000000000000000000000000000000000000000000000000000000080E78F
:2B11F9001A0000000000000000000000000000000000140000000000000000000000000000000000000000000080E934
:2B122400000000000000000000000000000000000000080000000000000000000000000000000000000000000080EF28
:2B124F00020000000000000000000000000000000000000000000000000000000000000000000000000000000080E50D
:2B127A00000000000000000000000000000000000000000000000000000000000000000000000000000000000080E7E2
:2B12A500000000000000000000000000000000000000000000000000000000000000000000000000000000000080E7B7
:2B12D000180000000000000000000000000000000000000000000000000000000000000000000000000000000080FF5C
:2B12FB00000000000000000000000000000000000000000000000000000000000000000000000000000000000080E761
:2B132600000000000000000000000000000000000000000000000000000000000000000000000000000000000080E735
:2B135100000000000000000000000000000000000000000000000000000000000000000000000000000000000080E70A
:2B137C00000000000000000000000000000000000000000000000000000000000000000000000000000000000080E7DF
:2B13A700000000000000000000000000000000000000000000000000000000000000000000000000000000000080E7B4
:2B13D200000000000000000000000000000000000000010000000000000000000000000000000000000000000080E689
:2B13FD00000000000000000000000000000000000010080000000000000000000000000000000000000000000080FE2F
:2B142800800000020000000000000000000000000040040000000000000000000000000000000000000000000000AD26
:2B145300020000000000000000000000000000000000000000000000000000000000000000000000000000000080E507
:2B147E000000000000000000000000000000000000000000000000000000000000000000000000000000000000D0B2C1
:2B14A900000000000000000000000000000000000000000000000000000000000000000000000000000000000080E7B1
:2B14D400080000000000000000000000000000000000000000000000000000000000000000000000000000000080EF76
:2B14FF00000000000000000000000000000000000000000000000000000000000000000000000000000000000080E75B
:2B152A00080000000000000000000000000000000000000000000000000000000000000000000000000000000080EF1F
:2B155500000000000000000000000000000000000000000000000000000000000000000000000000000000000080E704
:2B158000000000000000000000000000000000000000000000000000000000000000000000000000000000000080E7D9
:2B15AB00000020000020000020000000000000000020000000000000000000000000000000000000000000000080E72E
:2B15D600000040100060000060000000000000000010000000000000000000000000000000000000000000000080A2A8
:2B160100400C250000A20200000800000000000000000000000000000000000000000000000000000000000000809988
:2B162C00020000000000000000000000000000000000000000000000000000000000000000000000000000000008ED9C
:2B165700000000000000000000000000000000000000000000000000000000000000000000000000000000000008EF71
:2B168200000000000000000000000000000000000000000000000000000000000000000000000000000000000090F6B7
:2B16AD00400C250000A2000000080000000000000000000000000000000000000000000000000000000000000008935C
:2B16D800000000000000000000000000000000000000000000000000000000000000000000000000000000000008EFF0
:2B170300020000000000000000000000000000000000000000000000000000000000000000000000000000000008EDC4
:2B172E00800008800008800008800008800008800008000000000020000220000220000220000220000220000280E72D
:2B175900800008800008800008800008800008800008000000000020000220000220000220000220000220000280E702
:2B178400800001100000020020000000000000000000040000000000000000000000000000000000000000000000CBB8
:2B17AF0062021E000006000006000000000000000006000000000000000000000000000000000000000000000088B63D
:2B17DA00020000000000000040000000000000000008000000000000000000000000000000000000000000000000A9F1
:2B18050044000502001C04001C0000000000000000AC0000000000000000000000000000000000000000000000809F66
:2B183000020000020000000000000000000000000000000000000000000000000000000000000000000000000080E722
:2B185B000206200000580000400000000000000000281000000000000000000000000000000000000000000000808268
:2B188600821000000000000000000000000000000008010000000000000000000000000000000000000000000008EDA7
:2B18B100000000000000000000000000000000000008000000000000000000000000000000000000000000000000EF15
:2B18DC00800051000010020000040000000000000080000000000000000000000000000000000000000000000080BD3D
:2B19070060023600000600000600000000000000000600000000000000000000000000000000000000000000008096F5
:2B193200020010000008000080000000000000000000000000000000000000000000000000000000000000000008F4F4
:2B195D0040003D08002408001400000000000000002C1000000000000000000000000000000000000000000000088DC9
:2B198800000010010000000000000000000000000008000000000000000000000000000000000000000000000010EE1D
:2B19B3000006180000000400001000000000000000080100000000000000000000000000000000000000000000088D39
:2B19DE0000105000002000001800000000000000000800000000000000000000000000000000000000000000000888AE
:2B1A0900020018000000000098000000000000000008020000000000000000000000000000000000000000000008E707
:2B1A3400000001100000040000000000000000000000100000000000000000000000000000000000000000000080F3EF
:2B1A5F0060023E00001E000006080000000000000026000000000000000000000000000000000000000000000080AD3D
:2B1A8A00000020000018020000000000000000000000000000000000000000000000000000000000000000000000DE19
:2B1AB50042000500000400003408000000000000003C010000000000000000000000000000000000000000000088BCFE
:2B1AE000020080000000000058000000000000000000020000000000000000000000000000000000000000000080BAC5
:2B1B0B0004062000000004001800000000000000002000000000000000000000000000000000000000000000000098B1
:2B1B3600821000000000000018000000000000000000000000000000000000000000000000000000000000000080F565
:2B1B6100020000000000000038010000000000000000000000000000000000000000000000000000000000000000DF3F
:2B1B8C00020111100000000000020000000000000040000000000000000000000000000000000000000000000008AB15
:2B1BB70060022600000610000E0000000000000000060000000000000000000000000000000000000000000000009FB2
:2B1BE200000100100000000000000000000000000018080000000000000000000000000000000000000000000000F7B0
:2B1C0D00C0010500002408000404000000000000003C000000000000000000000000000000000000000000000080BB3B
:2B1C3800020020000038000000000000000000000018010000000000000000000000000000000000000000000008EC1A
:2B1C63000006000000000000000200000000000000000000000000000000000000000000000000000000000000088BBB
:2B1C8E00001000000000000000020000000000000018000000000000000000000000000000000000000000000010EC05
:2B1CB900000000020000000020000000000000000018000000000000000000000000000000000000000000000088D668
:2B1CE400800001000040000018020000000000000000040000000000000000000000000000000000000000000008AC42
:2B1D0F00620226080002000006000000000000000006000000000000000000000000000000000000000000000008C53C
:2B1D3A00000000000002000000000000000000000018000000000000000000000000000000000000000000000000DE86
:2B1D6500C00175000074000004040000000000000004010000000000000000000000000000000000000000000000ABF1
:2B1D900000000000008A000000000000000000000018000000000000000000000000000000000000000000000000D6B0
:2B1DBB0002060010002A000060000000000000000018020000000000000000000000000000000000000000000008EC4D
:2B1DE600021018000008000000000000000000000018000000000000000000000000000000000000000000000000EC9C
:2B1E11000400580000281000000000000000000000180000000000000000000000000000000000000000000000009D5D
:2B1E3C00020011100038000010000000000000000018100000000000000000000000000000000000000000000080D791
:2B1E670062020E0000060000160200000000000000260000000000000000000000000000000000000000000000009EFC
:2B1E9200020020000000000000020000000000000000000000000000000000000000000000000000000000000008CD2C
:2B1EBD0040000500000402003C00000000000000000408000000000000000000000000000000000000000000000086E1
:2B1EE800800008000000020000080000000000000000000000000000000000000000000000000000000000000080EDD0
:2B1F13000006000200200000180000000000000000200100000000000000000000000000000000000000000000009BA7
:2B1F3E00021000020000000040000000000000000000000000000000000000000000000000000000000000000080A202
:2B1F6900000020000000000020000000000000000000000000000000000000000000000000000000000000000008EF16
:2B1F9400000111100018000000040000000000000080000000000000000000000000000000000000000000000008F26A
:2B1FBF0060033A00003E080006000000000000000026000000000000000000000000000000000000000000000008D60A
:2B1FEA0000015A000020000000000000000000000000000000000000000000000000000000000000000000000088A128
:2B201500C2012500000400002408000000000000002C1000000000000000000000000000000000000000000000809E2E
:2B204000000002000000000000000000000000000008080000000000000000000000000000000000000000000000C79C
:2B206B000006A2000000000000000000000000000028000000000000000000000000000000000000000000000080A951
:2B209600001008000000000018000000000000000008020000000000000000000000000000000000000000000000FDE8
:2B20C100020028100000000018000000000000000008000000000000000000000000000000000000000000000000CECC
:2B20EC00020141000000000010100018000000000000000000000000000000000000000000000000000000000088B015
:2B211700A4022600000610002200003E01000000008E000000000000000000000000000000000000000000000008E3E1
:2B214200220108080000000012040000010000000000000000000000000000000000000000000000000000000088E8B8
:2B216D0042000500002408000C00000400000000002C100000000000000000000000000000000000000000000008E59B
:2B219800220018000018000002000000000000000000000000000000000000000000000000000000000000000080E563
:2B21C300A0071802001800007A000000000000000048000000000000000000000000000000000000000000000000A9AD
:2B21EE00001018020000000000000000000000000008020000000000000000000000000000000000000000000080F71B
:2B2219008003380000000000B8000000000000000008000000000000000000000000000000000000000000000000D44B
:2B224400000000000000000000000000000000000000000000000000000000000000000000000000000000000018FE59
:2B226F00800008000008000008000000000000000000000000000000000000000000000000000000000000000080E745
:2B229A00200002800002800002800008800008800008000000000020000220000220000220000220000220000280E728
:2B22C500000000800000800000800008800008800008000000000020000220000220000220000220000220000280E723
:2B22F00060070107C0A2000004000002000000000002000000000000000000000000000000000000000000000000A941
:2B231B00000000004000000000000000000000000000000000000000000000000000000000000000000000000080E3F4
:2B234600000100040000000000000000000000000010000000000000000000000000000000000000000000000080E3F4
:2B237100800000000000000008000000000000000000000000000000000000000000000000000000000000000080E752
:2B239C0060060101C0A2000004000002000000000002000000000000000000000000000000000000000000000000BE86
:2B23C700000004000000010000010000000000000000000000000000000000000000000000000000000000000080A7BE
:2B23F200000110000000000000000010000000000020000000000000000000000000000000000000000000000080D42B
:2B241D00000000000000040000040008000000000008000000000000000000000000000000000000000000000080E715
:2B244800000000000000000000000000000000000000000000000000000000000000000000000000000000000080E702
:2B2473000A00010C00001800000000000000000000000000000000000000000000000000000000000000000000C0ADA2
:2B249E000080000800000100000B0000000000000000080000000000000000000000000000000000000000000080E512
:2B24C900020000000000000000000000000000000000000000000000000000000000000000000000000000000080E581
:2B24F400000000000000000000000000000000000000000000000000000000000000000000000000000000000080E756
:2B251F000000000000040000040200000000000000000200000000000000000000000000000000000000000000C0A322
:2B254A00000000000000000000000000000000000000000000000000000000000000000000000000000000000080E7FF
:2B257500080000100000000008100000000000000000000000000000000000000000000000000000000000000000E724
:2B25A000000000000000000000000000000000000000000000000000000000000000000000000000000000000080E7A9
:2B25CB00000000000000000000000000000000000000000000000000000000000000000000000000000000000080E77E
:2B25F600000000000000000000000000000000000000000000000000000000000000000000000000000000000080E753
:2B262100000000000000000000000000000000000000000000000000000000000000000000000000000000000080E727
:2B264C00000000000000000000000000000000000000000000000000000000000000000000000000000000000080E7FC
:2B267700000000000000000000000000000000000000000000000000000000000000000000000000000000000080E7D1
:2B26A200000000000000000000000000000000000000000000000000000000000000000000000000000000000080E7A6
:2B26CD00000000000000000000000000000000000000000000000000000000000000000000000000000000000080E77B
:2B26F800000000000000000000000000000000000000000000000000000000000000000000000000000000000080E750
:2B272300000000000000000000000000000000000000000000000000000000000000000000000000000000000080E724
:2B274E00000000000000000000000000000000000000000000000000000000000000000000000000000000000080E7F9
:2B277900000000000000000000000000000000000000000000000000000000000000000000000000000000000080E7CE
:2B27A400000000000000000000000000000000000000000000000000000000000000000000000000000000000080E7A3
:2B27CF00000000000000000000000000000000000000000000000000000000000000000000000000000000000080E778
:2B27FA00000000000000000000000000000000000000000000000000000000000000000000000000000000000080E74D
:2B282500000000000000000000000000000000000000000000000000000000000000000000000000000000000080E721
:2B285000000000000000000000000000000000000000000000000000000000000000000000000000000000000080E7F6
:2B287B00000000000000000000000000000000000000000000000000000000000000000000000000000000000080E7CB
:2B28A600020000000000000000000000000000000000000000000000000000000000000000000000000000000008ED10
:2B28D100000000000000000000000000000000000000000000000000000000000000000000000000000000000080E775
:2B28FC00000000000000000000000000000000000000000000000000000000000000000000000000000000000080E74A
:2B292700000000000000000000000000000000000000000000000000000000000000000000000000000000000080E71E
:2B295200000000000000000000000000000000000000000000000000000000000000000000000000000000000080E7F3
:2B297D00020000000000000000000000000000000000000000000000000000000000000000000000000000000008ED38
:2B29A800800008800008800008800008800008800008000000000020000220000220000220000220000220000280E7A1
:2B29D300800008800008800008800008800008800008000000000020000220000220000220000220000220000280E776
:2B29FE00000000000000000000000000000000000000000000000000000000000000000000000000000000000080E747
:2B2A2900020000000000000000000000000000000000000000000000000000000000000000000000000000000008ED8B
:2B2A5400000000000000000000000000000000000000000000000000000000000000000000000000000000000080E7F0
:2B2A7F00000000000000000000000000000000000000000000000000000000000000000000000000000000000080E7C5
:2B2AAA00000000000000000000000000000000000000000000000000000000000000000000000000000000000080E79A
:2B2AD500000000000000000000000000000000000000000000000000000000000000000000000000000000000080E76F
:2B2B0000020000000000000000000000000000000000000000000000000000000000000000000000000000000008EDB3
:2B2B2B00000000000000000000000000000000000000000000000000000000000000000000000000000000000080E718
:2B2B5600000000000000000000000000000000000000000000000000000000000000000000000000000000000080E7ED
:2B2B8100000000000000000000000000000000000000000000000000000000000000000000000000000000000080E7C2
:2B2BAC00020000000000000000000000000000000000000000000000000000000000000000000000000000000008ED07
:2B2BD700000000000000000000000000000000000000000000000000000000000000000000000000000000000080E76C
:2B2C0200000000000000000000000000000000000000000000000000000000000000000000000000000000000080E740
:2B2C2D00000000000000000000000000000000000000000000000000000000000000000000000000000000000080E715
:2B2C5800000000000000000000000000000000000000000000000000000000000000000000000000000000000080E7EA
:2B2C8300020000000000000000000000000000000000000000000000000000000000000000000000000000000008ED2F
:2B2CAE00000000000000000000000000000000000000000000000000000000000000000000000000000000000080E794
:2B2CD900000000000000000000000000000000000000000000000000000000000000000000000000000000000080E769
:2B2D0400000000000000000000000000000000000000000000000000000000000000000000000000000000000080E73D
:2B2D2F00020000000000000000000000000000000000000000000000000000000000000000000000000000000008ED82
:2B2D5A00000000000000000000000000000000000000000000000000000000000000000000000000000000000080E7E7
:2B2D8500000000000000000000000000000000000000000000000000000000000000000000000000000000000080E7BC
:2B2DB000000000000000000000000000000000000000000000000000000000000000000000000000000000000080E791
:2B2DDB00000000000000000000000000000000000000000000000000000000000000000000000000000000000080E766
:2B2E0600020000000000000000000000000000000000000000000000000000000000000000000000000000000008EDAA
:2B2E3100000000000000000000000000000000000000000000000000000000000000000000000000000000000080E70F
:2B2E5C00000000000000000000000000000000000000000000000000000000000000000000000000000000000080E7E4
:2B2E8700000000000000000000000000000000000000000000000000000000000000000000000000000000000080E7B9
:2B2EB200020000000000000000000000000000000000000000000000000000000000000000000000000000000008EDFE
:2B2EDD00000000000000000000000000000000000000000000000000000000000000000000000000000000000080E763
:2B2F0800000000000000000000000000000000000000000000000000000000000000000000000000000000000080E737
:2B2F3300000000000000000000000000000000000000000000000000000000000000000000000000000000000080E70C
:2B2F5E00000000000000000000000000000000000000000000000000000000000000000000000000000000000080E7E1
:2B2F8900020000000000000000000000000000000000000000000000000000000000000000000000000000000008ED26
:2B2FB400000000000000000000000000000000000000000000000000000000000000000000000000000000000080E78B
:2B2FDF00000000000000000000000000000000000000000000000000000000000000000000000000000000000080E760
:2B300A00000000000000000000000000000000000000000000000000000000000000000000000000000000000080E734
:2B303500020000000000000000000000000000000000000000000000000000000000000000000000000000000008ED79
:2B306000000000000000000000000000000000000000000000000000000000000000000000000000000000000080E7DE
:2B308B00000000000000000000000000000000000000000000000000000000000000000000000000000000000080E7B3
:2B30B600000000000000000000000000000000000000000000000000000000000000000000000000000000000080E788
:2B30E100000000000000000000000000000000000000000000000000000000000000000000000000000000000080E75D
:2B310C00020000000000000000000000000000000000000000000000000000000000000000000000000000000008EDA1
:2B313700000000000000000000000000000000000000000000000000000000000000000000000000000000000080E706
:2B316200000000000000000000000000000000000000000000000000000000000000000000000000000000000080E7DB
:2B318D00000000000000000000000000000000000000000000000000000000000000000000000000000000000080E7B0
:2B31B800020000000000000000000000000000000000000000000000000000000000000000000000000000000008EDF5
:2B31E300000000000000000000000000000000000000000000000000000000000000000000000000000000000080E75A
:2B320E00000000000000000000000000000000000000000000000000000000000000000000000000000000000080E72E
:2B323900000000000000000000000000000000000000000000000000000000000000000000000000000000000080E703
:2B326400000000000000000000000000000000000000000000000000000000000000000000000000000000000080E7D8
:2B328F00020000000000000000000000000000000000000000000000000000000000000000000000000000000008ED1D
:2B32BA00000000000000000000000000000000000000000000000000000000000000000000000000000000000080E782
:2B32E500000000000000000000000000000000000000000000000000000000000000000000000000000000000080E757
:2B331000000000000000000000000000000000000000000000000000000000000000000000000000000000000080E72B
:2B333B00020000000000000000000000000000000000000000000000000000000000000000000000000000000008ED70
:2B336600000000000000000000000000000000000000000000000000000000000000000000000000000000000080E7D5
:2B339100000000000000000000000000000000000000000000000000000000000000000000000000000000000080E7AA
:2B33BC00000000000000000000000000000000000000000000000000000000000000000000000000000000000080E77F
:2B33E700000000000000000000000000000000000000000000000000000000000000000000000000000000000080E754
:2B341200020000000000000000000000000000000000000000000000000000000000000000000000000000000008ED98
:2B343D00000000000000000000000000000000000000000000000000000000000000000000000000000000000080E7FD
:2B346800000000000000000000000000000000000000000000000000000000000000000000000000000000000080E7D2
:2B349300000000000000000000000000000000000000000000000000000000000000000000000000000000000080E7A7
:2B34BE00000000000000000000000000000000000000000000000000000000000000000000000000000000000080E77C
:2B34E900000000000000000000000000000000000000000000000000000000000000000000000000000000000080E751
:2B351400800008800008800008800008800008800008000000000020000220000220000220000220000220000280E729
:2B353F00800008800008800008800008800008800008000000000020000220000220000220000220000220000280E7FE
:2B356A00000000000000000000000000000000000000000000000000000000000000000000000000000000000080E7CF
:2B359500000000000000000000000000000000000000000000000000000000000000000000000000000000000080E7A4
:2B35C000000000000000000000000000000000000000000000000000000000000000000000000000000000000080E779
:2B35EB00000000000000000000000000000000000000000000000000000000000000000000000000000000000080E74E
:2B361600000000000000000000000000000000000000000000000000000000000000000000000000000000000080E722
:2B364100000000000000000000000000000000000000000000000000000000000000000000000000000000000080E7F7
:2B366C00000000000000000000000000000000000000000000000000000000000000000000000000000000000080E7CC
:2B369700000000000000000000000000000000000000000000000000000000000000000000000000000000000080E7A1
:2B36C200000000000000000000000000000000000000000000000000000000000000000000000000000000000080E776
:2B36ED00000000000000000000000000000000000000000000000000000000000000000000000000000000000080E74B
:2B371800000000000000000000000000000000000000000000000000000000000000000000000000000000000080E71F
:2B374300000000000000000000000000000000000000000000000000000000000000000000000000000000000080E7F4
:2B376E00000000000000000000000000000000000000000000000000000000000000000000000000000000000080E7C9
:2B379900000000000000000000000000000000000000000000000000000000000000000000000000000000000080E79E
:2B37C400000000000000000000000000000000000000000000000000000000000000000000000000000000000080E773
:2B37EF00000000000000000000000000000000000000000000000000000000000000000000000000000000000080E748
:2B381A00000000000000000000000000000000000000000000000000000000000000000000000000000000000080E71C
:2B384500000000000000000000000000000000000000000000000000000000000000000000000000000000000080E7F1
:2B387000000000000000000000000000000000000000000000000000000000000000000000000000000000000080E7C6
:2B389B008004003000010000000000000000000000000000000000000000000000000000000000000000000000008BC2
:2B38C600802008800000000000000000000000000020020000000000000000000000000000000000000000000000CDC0
:2B38F100000000000000000000000000000000000000000000000000000000000000000000000000000000000080E745
:2B391C00000000000000000000000000000000000000000000000000000000000000000000000000000000000080E719
:2B394700E0380EE11004411004411004411004411084030000000010044110044110044110044110044110044100CF96
:2B397200605996611986611886611886611886611886050000000018866118866118866118866118866118866180F66A
:02399D00FFFF2A
:00000001FF
